:100000000C942A000C946C010C943C000C943C0061
:100010000C943C000C943C000C943C000C943C0070
:100020000C943C000C943C000C943C000C943C0060
:100030000C943C000C943C000C943C000C943C0050
:100040000C943C000C943C000C943C000C943C0040
:100050000C943C0011241FBECFE5D8E0DEBFCDBF1D
:1000600010E0A0E6B0E001C01D92A436B107E1F7B0
:100070000E943E000C94D6060C940000DF93CF93B0
:10008000CDB7DEB70E94760083E060E041E00E94D9
:10009000990183E060E041E00E94990268E873E121
:1000A00080E090E00E949D0083E060E040E00E94DC
:1000B000990260E177E280E090E00E949D0083E099
:1000C00060E041E00E94990268E97AE380E090E014
:1000D0000E949D0083E060E040E00E94990260E29F
:1000E0007EE480E090E00E949D00D3CFDF93CF9329
:1000F000CDB7DEB7A3E5B0E0E3E5F0E0808188604E
:100100008C93A3E5B0E0E3E5F0E080818F7B8C93F6
:10011000A3E5B0E0E3E5F0E08081887F8C93A3E580
:10012000B0E0E3E5F0E0808182608C93ECE5F0E004
:1001300088EC8083CF91DF910895DF93CF93CDB783
:10014000DEB728970FB6F894DEBF0FBECDBF6D8324
:100150007E838F839887A3E5B0E0E3E5F0E08081BC
:1001600088608C93A3E5B0E0E3E5F0E080818F7BCD
:100170008C93ECE5F0E088EC8083A8E5B0E0E8E55E
:10018000F0E0808182608C93A3E5B0E0E3E5F0E0ED
:100190008081887F8C93A3E5B0E0E3E5F0E0808187
:1001A00082608C9381E090E0A0E0B0E089839A8344
:1001B000AB83BC831CC0E8E5F0E080818695882F86
:1001C00090E0817090700097B1F3A8E5B0E0E8E5A9
:1001D000F0E0808182608C9389819A81AB81BC81BF
:1001E0000196A11DB11D89839A83AB83BC832D81A8
:1001F0003E814F815885DA01C901880F991FAA1FD6
:10020000BB1F880F991FAA1FBB1F280F391F4A1F2A
:100210005B1F89819A81AB81BC81281739074A0706
:100220005B0748F628960FB6F894DEBF0FBECDBF29
:10023000CF91DF910895DF93CF93CDB7DEB7AFE5D0
:10024000B0E0EFE5F0E0808180688C93CF91DF91A2
:100250000895DF93CF93CDB7DEB7A5E5B0E0E5E530
:10026000F0E080818E7F8C93A5E5B0E0E5E5F0E0DD
:10027000808182608C93CF91DF910895DF93CF933B
:10028000CDB7DEB7ABE5B0E0EBE5F0E080818064B0
:100290008C93CF91DF910895DF93CF93CDB7DEB7E5
:1002A000ABE5B0E0EBE5F0E080818F7B8C93CF9104
:1002B000DF910895DF93CF9300D0CDB7DEB79A8357
:1002C000898389819A8190936100809360000F9067
:1002D0000F90CF91DF9108951F920F920FB60F925A
:1002E00011242F933F934F935F936F937F938F933B
:1002F0009F93AF93BF93EF93FF93DF93CF93CDB7CC
:10030000DEB7E0916000F09161000995CF91DF9137
:10031000FF91EF91BF91AF919F918F917F916F91DD
:100320005F914F913F912F910F900FBE0F901F90B3
:100330001895DF93CF93CDB7DEB727970FB6F89414
:10034000DEBF0FBECDBF89836A834B838B81813033
:1003500009F06FC08981282F30E03F832E838E8182
:100360009F818130910549F12E813F8122303105F5
:100370002CF48E819F81009761F0D2C02E813F8145
:100380002230310571F18E819F8183309105E9F131
:10039000C7C0AAE3B0E0EAE3F0E08081482F8A8199
:1003A000282F30E081E090E0022E02C0880F991FD4
:1003B0000A94E2F7842B8C93B3C0A7E3B0E0E7E3A1
:1003C000F0E08081482F8A81282F30E081E090E0A2
:1003D000022E02C0880F991F0A94E2F7842B8C9397
:1003E0009FC0A4E3B0E0E4E3F0E08081482F8A817D
:1003F000282F30E081E090E0022E02C0880F991F84
:100400000A94E2F7842B8C938BC0A1E3B0E0E1E384
:10041000F0E08081482F8A81282F30E081E090E051
:10042000022E02C0880F991F0A94E2F7842B8C9346
:1004300077C08B81882309F073C08981282F30E031
:100440003D832C838C819D818130910559F12C81D4
:100450003D81223031052CF48C819D81009769F01B
:100460005FC02C813D812230310589F18C819D81D5
:100470008330910509F440C053C0AAE3B0E0EAE339
:10048000F0E08081482F8A81282F30E081E090E0E1
:10049000022E02C0880F991F0A94E2F780958423E8
:1004A0008C933EC0A7E3B0E0E7E3F0E08081482F03
:1004B0008A81282F30E081E090E0022E02C0880F70
:1004C000991F0A94E2F7809584238C9329C0A4E3B2
:1004D000B0E0E4E3F0E08081482F8A81282F30E00B
:1004E00081E090E0022E02C0880F991F0A94E2F783
:1004F000809584238C9314C0A1E3B0E0E1E3F0E0A5
:100500008081482F8A81282F30E081E090E0022E00
:1005100002C0880F991F0A94E2F7809584238C9378
:1005200027960FB6F894DEBF0FBECDBFCF91DF91F7
:100530000895DF93CF93CDB7DEB727970FB6F89422
:10054000DEBF0FBECDBF89836A834B838B81813031
:1005500009F06FC08981282F30E03F832E838E8180
:100560009F818130910549F12E813F8122303105F3
:100570002CF48E819F81009761F0D2C02E813F8143
:100580002230310571F18E819F8183309105E9F12F
:10059000C7C0ABE3B0E0EBE3F0E08081482F8A8195
:1005A000282F30E081E090E0022E02C0880F991FD2
:1005B0000A94E2F7842B8C93B3C0A8E3B0E0E8E39D
:1005C000F0E08081482F8A81282F30E081E090E0A0
:1005D000022E02C0880F991F0A94E2F7842B8C9395
:1005E0009FC0A5E3B0E0E5E3F0E08081482F8A8179
:1005F000282F30E081E090E0022E02C0880F991F82
:100600000A94E2F7842B8C938BC0A2E3B0E0E2E380
:10061000F0E08081482F8A81282F30E081E090E04F
:10062000022E02C0880F991F0A94E2F7842B8C9344
:1006300077C08B81882309F073C08981282F30E02F
:100640003D832C838C819D818130910559F12C81D2
:100650003D81223031052CF48C819D81009769F019
:100660005FC02C813D812230310589F18C819D81D3
:100670008330910509F440C053C0ABE3B0E0EBE335
:10068000F0E08081482F8A81282F30E081E090E0DF
:10069000022E02C0880F991F0A94E2F780958423E6
:1006A0008C933EC0A8E3B0E0E8E3F0E08081482FFF
:1006B0008A81282F30E081E090E0022E02C0880F6E
:1006C000991F0A94E2F7809584238C9329C0A5E3AF
:1006D000B0E0E5E3F0E08081482F8A81282F30E008
:1006E00081E090E0022E02C0880F991F0A94E2F781
:1006F000809584238C9314C0A2E3B0E0E2E3F0E0A1
:100700008081482F8A81282F30E081E090E0022EFE
:1007100002C0880F991F0A94E2F7809584238C9376
:1007200027960FB6F894DEBF0FBECDBFCF91DF91F5
:100730000895DF93CF9300D000D0CDB7DEB7898383
:100740006A838981282F30E03C832B838B819C81B5
:100750008130910509F43EC02B813C812230310566
:100760002CF48B819C81009771F0A8C02B813C8177
:100770002230310509F455C08B819C81833091056D
:1007800009F476C09BC0AAE3B0E0EAE3F0E0808120
:10079000482F8A81282F30E081E090E002C0880F46
:1007A000991F2A95E2F7809584238C93A9E3B0E002
:1007B000E9E3F0E08081482F8A81282F30E081E052
:1007C00090E0022E02C0880F991F0A94E2F7842B52
:1007D0008C9374C0A7E3B0E0E7E3F0E08081482F9A
:1007E0008A81282F30E081E090E002C0880F991FB5
:1007F0002A95E2F7809584238C93A6E3B0E0E6E3A4
:10080000F0E08081482F8A81282F30E081E090E05D
:10081000022E02C0880F991F0A94E2F7842B8C9352
:100820004DC0A4E3B0E0E4E3F0E08081482F8A818A
:10083000282F30E081E090E002C0880F991F2A95B0
:10084000E2F7809584238C93A3E3B0E0E3E3F0E048
:100850008081482F8A81282F30E081E090E0022EAD
:1008600002C0880F991F0A94E2F7842B8C9326C04C
:10087000A1E3B0E0E1E3F0E08081482F8A81282FF6
:1008800030E081E090E002C0880F991F2A95E2F7DE
:10089000809584238C93A0E3B0E0E0E3F0E08081D6
:1008A000482F8A81282F30E081E090E0022E02C09C
:1008B000880F991F0A94E2F7842B8C930F900F9066
:1008C0000F900F90CF91DF910895DF93CF9300D0D9
:1008D00000D00F92CDB7DEB78A836B838A81282F31
:1008E00030E03D832C834C815D814130510541F1E5
:1008F0008C819D818230910534F42C813D812115BC
:10090000310561F052C04C815D814230510551F199
:100910008C819D8183309105B9F147C0E9E3F0E016
:100920008081282F30E08B81882F90E0A90102C0C0
:10093000559547958A95E2F7CA018170898335C03C
:10094000E6E3F0E08081282F30E08B81882F90E073
:10095000A90102C0559547958A95E2F7CA018170B1
:10096000898323C0E3E3F0E08081282F30E08B818E
:10097000882F90E0A90102C0559547958A95E2F726
:10098000CA018170898311C0E0E3F0E08081282FE3
:1009900030E08B81882F90E0A90102C055954795E2
:1009A0008A95E2F7CA018170898389810F900F903F
:1009B0000F900F900F90CF91DF910895DF93CF9319
:1009C00000D000D00F92CDB7DEB789836A834B8306
:1009D0008981282F30E03D832C838C819D8181305B
:1009E0009105D9F02C813D81223031052CF48C8188
:1009F0009D81009761F022C02C813D81223031051C
:100A000091F08C819D818330910599F017C080E031
:100A10006A814B810E94990211C081E06A814B81F9
:100A20000E9499020BC082E06A814B810E94990268
:100A300005C083E06A814B810E9499020F900F905C
:100A40000F900F900F90CF91DF910895DF93CF9388
:100A500000D000D00F92CDB7DEB78A836B838A8136
:100A6000282F30E03D832C838C819D81813091053E
:100A7000D9F02C813D81223031052CF48C819D816F
:100A8000009761F022C02C813D812230310591F028
:100A90008C819D818330910599F017C080E06B8136
:100AA0000E946504898311C081E06B810E94650406
:100AB00089830BC082E06B810E946504898305C035
:100AC00083E06B810E946504898389810F900F9078
:100AD0000F900F900F90CF91DF910895DF93CF93F8
:100AE000CDB7DEB70E941B010E9429010E943E0182
:100AF00085E296E00E945A0180E061E041E00E94B8
:100B0000990180E060E041E00E94990180E062E0AC
:100B100041E00E94990182E060E041E00E94990179
:100B200082E061E041E00E94990182E062E041E000
:100B30000E94990183E062E040E00E94990183E015
:100B400062E00E94990382E060E041E00E94990225
:100B5000CF91DF910895DF93CF9300D0CDB7DEB76B
:100B60001092620081E08093630080E060E041E0E9
:100B70000E94990268E873E180E090E00E949D0085
:100B800080E060E040E00E9499021A8219C083E090
:100B9000809363009091620081E0892780936200D6
:100BA0009091620080E061E0492F0E94990264EF19
:100BB00071E080E090E00E949D008A818F5F8A83CF
:100BC0008A818A3020F380E061E040E00E9499024F
:100BD0001092620082E08093630080E062E041E076
:100BE0000E94990268E873E180E090E00E949D0015
:100BF00080E062E040E00E949902198219C083E01F
:100C0000809363009091620081E089278093620065
:100C10009091620080E061E0492F0E94990264EFA8
:100C200071E080E090E00E949D0089818F5F898360
:100C300089818A3020F380E061E040E00E949902DF
:100C40000F900F90CF91DF910895DF93CF9300D055
:100C5000CDB7DEB70E944C0180916300882F90E0F1
:100C60008130910589F482E060E040E00E949902C1
:100C700082E062E041E00E94990268E873E180E06E
:100C800090E00E949D0048C082E060E041E00E9448
:100C9000990280E062E040E00E94990210926200B6
:100CA0001A821DC09091620081E0892780936200C2
:100CB0009091620080E061E0492F0E94990290913A
:100CC000620082E061E0492F0E94990264EF71E0C6
:100CD00080E090E00E949D008A818F5F8A838A81F4
:100CE0008A3000F382E060E040E00E94990280E0F8
:100CF00060E041E00E94990282E062E041E00E94EF
:100D0000990268E873E180E090E00E949D0080E035
:100D100060E040E00E94990280E060E040E00E94D4
:100D200099021092620019821DC09091620081E0C8
:100D30008927809362009091620080E061E0492FF2
:100D40000E9499029091620082E061E0492F0E9426
:100D5000990264EF71E080E090E00E949D0089813B
:100D60008F5F898389818A3000F382E062E040E00E
:100D70000E94990280E062E041E00E94990282E0D4
:100D800060E041E00E94990268E873E180E090E051
:100D90000E949D0080E062E040E00E9499020E9473
:100DA0003E010F900F90CF91DF910895F894FFCFFF
:00000001FF
