:100000000C942A000C9449050C943C000C943C0080
:100010000C943C000C943C000C943C000C943C0070
:100020000C943C000C943C000C943C000C943C0060
:100030000C943C000C943C000C943C000C943C0050
:100040000C943C000C943C000C943C000C943C0040
:100050000C943C0011241FBECFE5D8E0DEBFCDBF1D
:1000600010E0A0E6B0E001C01D92A636B107E1F7AE
:100070000E941E060C9427060C940000DF93CF9379
:10008000CDB7DEB70E94F8040E9406050E941B054A
:1000900085EF90E00E94370580E061E041E00E943A
:1000A000B30180E060E041E00E94B30180E062E0E3
:1000B00041E00E94B30182E060E041E00E94B301B0
:1000C00082E061E041E00E94B30182E062E041E051
:1000D0000E94B30183E062E040E00E94B30183E04C
:1000E00062E00E94B30382E060E041E00E94B3025C
:1000F000CF91DF910895DF93CF9300D0CDB7DEB7D6
:100100001092640081E08093650080E060E041E04F
:100110000E94B30268E873E180E090E00E94A405C9
:1001200080E060E040E00E94B3021A8219C083E0E0
:10013000809365009091640081E08927809364003A
:100140009091640080E061E0492F0E94B30264EF67
:1001500071E080E090E00E94A4058A818F5F8A832D
:100160008A818A3020F380E061E040E00E94B3029F
:100170001092640082E08093650080E062E041E0DC
:100180000E94B30268E873E180E090E00E94A40559
:1001900080E062E040E00E94B302198219C083E06F
:1001A000809365009091640081E0892780936400CA
:1001B0009091640080E061E0492F0E94B30264EFF7
:1001C00071E080E090E00E94A40589818F5F8983BF
:1001D00089818A3020F380E061E040E00E94B30230
:1001E0000F900F90CF91DF910895DF93CF9300D0C0
:1001F000CDB7DEB76AEF70E080E090E00E94A40522
:1002000083E062E00E947F04882309F4A7C00E9473
:10021000290580916500882F90E08130910589F44F
:1002200082E060E040E00E94B30282E062E041E0F0
:100230000E94B30268E873E180E090E00E94A405A8
:1002400048C082E060E041E00E94B30280E062E0EA
:1002500040E00E94B302109264001A821DC0909187
:10026000640081E08927809364009091640080E0BD
:1002700061E0492F0E94B3029091640082E061E046
:10028000492F0E94B30264EF71E080E090E00E9489
:10029000A4058A818F5F8A838A818A3000F382E095
:1002A00060E040E00E94B30280E060E041E00E9434
:1002B000B30282E062E041E00E94B30268E873E1C9
:1002C00080E090E00E94A40580E060E040E00E94B1
:1002D000B30280E060E040E00E94B302109264004C
:1002E00019821DC09091640081E089278093640089
:1002F0009091640080E061E0492F0E94B3029091E8
:10030000640082E061E0492F0E94B30264EF71E073
:1003100080E090E00E94A40589818F5F89838981B4
:100320008A3000F382E062E040E00E94B30280E0A5
:1003300062E041E00E94B30282E060E041E00E949E
:10034000B30268E873E180E090E00E94A40580E0D9
:1003500062E040E00E94B3020E941B050F900F90E4
:10036000CF91DF910895DF93CF93CDB7DEB7279775
:100370000FB6F894DEBF0FBECDBF89836A834B836F
:100380008B81813009F06FC08981282F30E03F8355
:100390002E838E819F818130910549F12E813F818D
:1003A000223031052CF48E819F81009761F0D2C0FC
:1003B0002E813F812230310571F18E819F81833002
:1003C0009105E9F1C7C0AAE3B0E0EAE3F0E080817B
:1003D000482F8A81282F30E081E090E0022E02C071
:1003E000880F991F0A94E2F7842B8C93B3C0A7E37C
:1003F000B0E0E7E3F0E08081482F8A81282F30E0E9
:1004000081E090E0022E02C0880F991F0A94E2F763
:10041000842B8C939FC0A4E3B0E0E4E3F0E0808100
:10042000482F8A81282F30E081E090E0022E02C020
:10043000880F991F0A94E2F7842B8C938BC0A1E359
:10044000B0E0E1E3F0E08081482F8A81282F30E09E
:1004500081E090E0022E02C0880F991F0A94E2F713
:10046000842B8C9377C08B81882309F073C089819A
:10047000282F30E03D832C838C819D818130910534
:1004800059F12C813D81223031052CF48C819D81E4
:10049000009769F05FC02C813D812230310589F1E0
:1004A0008C819D818330910509F440C053C0AAE33B
:1004B000B0E0EAE3F0E08081482F8A81282F30E025
:1004C00081E090E0022E02C0880F991F0A94E2F7A3
:1004D000809584238C933EC0A7E3B0E0E7E3F0E08F
:1004E0008081482F8A81282F30E081E090E0022E21
:1004F00002C0880F991F0A94E2F7809584238C9399
:1005000029C0A4E3B0E0E4E3F0E08081482F8A81D1
:10051000282F30E081E090E0022E02C0880F991F62
:100520000A94E2F7809584238C9314C0A1E3B0E091
:10053000E1E3F0E08081482F8A81282F30E081E0DC
:1005400090E0022E02C0880F991F0A94E2F780956E
:1005500084238C9327960FB6F894DEBF0FBECDBFD1
:10056000CF91DF910895DF93CF93CDB7DEB7279773
:100570000FB6F894DEBF0FBECDBF89836A834B836D
:100580008B81813009F06FC08981282F30E03F8353
:100590002E838E819F818130910549F12E813F818B
:1005A000223031052CF48E819F81009761F0D2C0FA
:1005B0002E813F812230310571F18E819F81833000
:1005C0009105E9F1C7C0ABE3B0E0EBE3F0E0808177
:1005D000482F8A81282F30E081E090E0022E02C06F
:1005E000880F991F0A94E2F7842B8C93B3C0A8E379
:1005F000B0E0E8E3F0E08081482F8A81282F30E0E6
:1006000081E090E0022E02C0880F991F0A94E2F761
:10061000842B8C939FC0A5E3B0E0E5E3F0E08081FC
:10062000482F8A81282F30E081E090E0022E02C01E
:10063000880F991F0A94E2F7842B8C938BC0A2E356
:10064000B0E0E2E3F0E08081482F8A81282F30E09B
:1006500081E090E0022E02C0880F991F0A94E2F711
:10066000842B8C9377C08B81882309F073C0898198
:10067000282F30E03D832C838C819D818130910532
:1006800059F12C813D81223031052CF48C819D81E2
:10069000009769F05FC02C813D812230310589F1DE
:1006A0008C819D818330910509F440C053C0ABE338
:1006B000B0E0EBE3F0E08081482F8A81282F30E022
:1006C00081E090E0022E02C0880F991F0A94E2F7A1
:1006D000809584238C933EC0A8E3B0E0E8E3F0E08B
:1006E0008081482F8A81282F30E081E090E0022E1F
:1006F00002C0880F991F0A94E2F7809584238C9397
:1007000029C0A5E3B0E0E5E3F0E08081482F8A81CD
:10071000282F30E081E090E0022E02C0880F991F60
:100720000A94E2F7809584238C9314C0A2E3B0E08E
:10073000E2E3F0E08081482F8A81282F30E081E0D9
:1007400090E0022E02C0880F991F0A94E2F780956C
:1007500084238C9327960FB6F894DEBF0FBECDBFCF
:10076000CF91DF910895DF93CF9300D000D0CDB724
:10077000DEB789836A838981282F30E03C832B830D
:100780008B819C818130910509F43EC02B813C8195
:10079000223031052CF48B819C81009771F0A8C028
:1007A0002B813C812230310509F455C08B819C811D
:1007B0008330910509F476C09BC0AAE3B0E0EAE378
:1007C000F0E08081482F8A81282F30E081E090E09E
:1007D00002C0880F991F2A95E2F7809584238C9395
:1007E000A9E3B0E0E9E3F0E08081482F8A81282F77
:1007F00030E081E090E0022E02C0880F991F0A9439
:10080000E2F7842B8C9374C0A7E3B0E0E7E3F0E059
:100810008081482F8A81282F30E081E090E002C05B
:10082000880F991F2A95E2F7809584238C93A6E37D
:10083000B0E0E6E3F0E08081482F8A81282F30E0A5
:1008400081E090E0022E02C0880F991F0A94E2F71F
:10085000842B8C934DC0A4E3B0E0E4E3F0E080810E
:10086000482F8A81282F30E081E090E002C0880F75
:10087000991F2A95E2F7809584238C93A3E3B0E037
:10088000E3E3F0E08081482F8A81282F30E081E087
:1008900090E0022E02C0880F991F0A94E2F7842B81
:1008A0008C9326C0A1E3B0E0E1E3F0E08081482F23
:1008B0008A81282F30E081E090E002C0880F991FE4
:1008C0002A95E2F7809584238C93A0E3B0E0E0E3DF
:1008D000F0E08081482F8A81282F30E081E090E08D
:1008E000022E02C0880F991F0A94E2F7842B8C9382
:1008F0000F900F900F900F90CF91DF910895DF939D
:10090000CF9300D000D00F92CDB7DEB78A836B8330
:100910008A81282F30E03D832C834C815D814130DA
:10092000510541F18C819D818230910534F42C81F7
:100930003D812115310561F052C04C815D8142300D
:10094000510551F18C819D8183309105B9F147C0EA
:10095000E9E3F0E08081282F30E08B81882F90E060
:10096000A90102C0559547958A95E2F7CA018170A1
:10097000898335C0E6E3F0E08081282F30E08B8169
:10098000882F90E0A90102C0559547958A95E2F716
:10099000CA018170898323C0E3E3F0E08081282FBE
:1009A00030E08B81882F90E0A90102C055954795D2
:1009B0008A95E2F7CA018170898311C0E0E3F0E013
:1009C0008081282F30E08B81882F90E0A90102C020
:1009D000559547958A95E2F7CA0181708983898187
:1009E0000F900F900F900F900F90CF91DF9108957F
:1009F000DF93CF93CDB7DEB7AFE5B0E0EFE5F0E042
:100A0000808180688C93CF91DF910895DF93CF939D
:100A1000CDB7DEB7A5E5B0E0E5E5F0E080818E7FFB
:100A20008C93A5E5B0E0E5E5F0E0808182608C93F1
:100A3000CF91DF910895DF93CF93CDB7DEB7ABE5CC
:100A4000B0E0EBE5F0E0808180648C93CF91DF91A2
:100A50000895DF93CF93CDB7DEB7ABE5B0E0EBE51C
:100A6000F0E080818F7B8C93CF91DF910895DF93AD
:100A7000CF9300D0CDB7DEB79A83898389819A81DD
:100A800090936100809360000F900F90CF91DF9161
:100A900008951F920F920FB60F9211242F933F9338
:100AA0004F935F936F937F938F939F93AF93BF9376
:100AB000EF93FF93DF93CF93CDB7DEB7E091600064
:100AC000F09161000995CF91DF91FF91EF91BF9176
:100AD000AF919F918F917F916F915F914F913F91D6
:100AE0002F910F900FBE0F901F901895DF93CF930B
:100AF000CDB7DEB7A3E5B0E0E3E5F0E08081886044
:100B00008C93A3E5B0E0E3E5F0E080818F7B8C93EC
:100B1000A3E5B0E0E3E5F0E08081887F8C93A3E576
:100B2000B0E0E3E5F0E0808182608C93ECE5F0E0FA
:100B300088EC8083A9E5B0E0E9E5F0E0808182609F
:100B40008C93CF91DF910895EF92FF920F931F93B3
:100B5000DF93CF9300D000D000D0CDB7DEB76B834A
:100B60007C838D839E83A3E5B0E0E3E5F0E08081A4
:100B700088608C93A3E5B0E0E3E5F0E080818F7BB3
:100B80008C93ECE5F0E088EC8083A8E5B0E0E8E544
:100B9000F0E0808182608C93A3E5B0E0E3E5F0E0D3
:100BA0008081887F8C93A3E5B0E0E3E5F0E080816D
:100BB00082608C9381E090E09A83898316C0E8E597
:100BC000F0E080818695882F90E08170907000978A
:100BD000B1F3A8E5B0E0E8E5F0E0808182608C93B5
:100BE00089819A8101969A83898389819A817C017E
:100BF00000E010E02B813C814D815E81DA01C9016A
:100C0000880F991FAA1FBB1F880F991FAA1FBB1F00
:100C1000820F931FA41FB51F8E159F05A007B10754
:100C200070F626960FB6F894DEBF0FBECDBFCF91FB
:100C3000DF911F910F91FF90EF900895DF93CF9375
:100C4000CDB7DEB70E943E000E947B00FDCFF89436
:020C5000FFCFD4
:00000001FF
